{
  "_format": "hh-sol-artifact-1",
  "contractName": "Adversary",
  "sourceName": "src/contracts/Adversary.sol",
  "abi": [
    {
      "inputs": [],
      "stateMutability": "nonpayable",
      "type": "constructor"
    },
    {
      "inputs": [
        {
          "internalType": "uint256",
          "name": "",
          "type": "uint256"
        }
      ],
      "name": "games",
      "outputs": [
        {
          "internalType": "address",
          "name": "host",
          "type": "address"
        },
        {
          "internalType": "address",
          "name": "challenger",
          "type": "address"
        }
      ],
      "stateMutability": "view",
      "type": "function"
    },
    {
      "inputs": [
        {
          "internalType": "uint256",
          "name": "gameID",
          "type": "uint256"
        },
        {
          "internalType": "address",
          "name": "winner",
          "type": "address"
        }
      ],
      "name": "payout",
      "outputs": [],
      "stateMutability": "nonpayable",
      "type": "function"
    },
    {
      "inputs": [
        {
          "internalType": "address",
          "name": "host",
          "type": "address"
        },
        {
          "internalType": "address",
          "name": "challenger",
          "type": "address"
        },
        {
          "internalType": "uint256[]",
          "name": "tokenIDs",
          "type": "uint256[]"
        },
        {
          "internalType": "contract IERC721[]",
          "name": "originalContracts",
          "type": "address[]"
        }
      ],
      "name": "play",
      "outputs": [],
      "stateMutability": "nonpayable",
      "type": "function"
    },
    {
      "inputs": [
        {
          "internalType": "uint256",
          "name": "",
          "type": "uint256"
        },
        {
          "internalType": "uint256",
          "name": "",
          "type": "uint256"
        }
      ],
      "name": "tokens",
      "outputs": [
        {
          "internalType": "bool",
          "name": "exists",
          "type": "bool"
        },
        {
          "internalType": "uint256",
          "name": "tokenID",
          "type": "uint256"
        },
        {
          "internalType": "contract IERC721",
          "name": "originalContract",
          "type": "address"
        }
      ],
      "stateMutability": "view",
      "type": "function"
    }
  ],
  "bytecode": "0x608060405234801561001057600080fd5b50336000806101000a81548173ffffffffffffffffffffffffffffffffffffffff021916908373ffffffffffffffffffffffffffffffffffffffff1602179055506000600181905550610e21806100686000396000f3fe608060405234801561001057600080fd5b506004361061004c5760003560e01c8063117a5b901461005157806333f27f4f146100825780638b4864d61461009e578063be95e01a146100d0575b600080fd5b61006b600480360381019061006691906106dc565b6100ec565b60405161007992919061074a565b60405180910390f35b61009c600480360381019061009791906109f9565b610150565b005b6100b860048036038101906100b39190610a98565b610449565b6040516100c793929190610b61565b60405180910390f35b6100ea60048036038101906100e59190610b98565b6104ad565b005b60026020528060005260406000206000915090508060000160009054906101000a900473ffffffffffffffffffffffffffffffffffffffff16908060010160009054906101000a900473ffffffffffffffffffffffffffffffffffffffff16905082565b60008054906101000a900473ffffffffffffffffffffffffffffffffffffffff1673ffffffffffffffffffffffffffffffffffffffff163373ffffffffffffffffffffffffffffffffffffffff16146101de576040517f08c379a00000000000000000000000000000000000000000000000000000000081526004016101d590610c5b565b60405180910390fd5b8051825114610222576040517f08c379a000000000000000000000000000000000000000000000000000000000815260040161021990610ced565b60405180910390fd5b60405180604001604052808573ffffffffffffffffffffffffffffffffffffffff1681526020018473ffffffffffffffffffffffffffffffffffffffff1681525060026000600154815260200190815260200160002060008201518160000160006101000a81548173ffffffffffffffffffffffffffffffffffffffff021916908373ffffffffffffffffffffffffffffffffffffffff16021790555060208201518160010160006101000a81548173ffffffffffffffffffffffffffffffffffffffff021916908373ffffffffffffffffffffffffffffffffffffffff16021790555090505060005b825181101561042a57604051806060016040528060011515815260200184838151811061033c5761033b610d0d565b5b6020026020010151815260200183838151811061035c5761035b610d0d565b5b602002602001015173ffffffffffffffffffffffffffffffffffffffff16815250600360006001548152602001908152602001600020600083815260200190815260200160002060008201518160000160006101000a81548160ff0219169083151502179055506020820151816001015560408201518160020160006101000a81548173ffffffffffffffffffffffffffffffffffffffff021916908373ffffffffffffffffffffffffffffffffffffffff160217905550905050808061042290610d6b565b91505061030c565b506001600081548092919061043e90610d6b565b919050555050505050565b6003602052816000526040600020602052806000526040600020600091509150508060000160009054906101000a900460ff16908060010154908060020160009054906101000a900473ffffffffffffffffffffffffffffffffffffffff16905083565b60008054906101000a900473ffffffffffffffffffffffffffffffffffffffff1673ffffffffffffffffffffffffffffffffffffffff163373ffffffffffffffffffffffffffffffffffffffff161461053b576040517f08c379a000000000000000000000000000000000000000000000000000000000815260040161053290610c5b565b60405180910390fd5b60005b60011561068d5760006003600085815260200190815260200160002060008381526020019081526020016000206040518060600160405290816000820160009054906101000a900460ff16151515158152602001600182015481526020016002820160009054906101000a900473ffffffffffffffffffffffffffffffffffffffff1673ffffffffffffffffffffffffffffffffffffffff1673ffffffffffffffffffffffffffffffffffffffff168152505090508060000151610602575061068d565b806040015173ffffffffffffffffffffffffffffffffffffffff166342842e0e308584602001516040518463ffffffff1660e01b815260040161064793929190610db4565b600060405180830381600087803b15801561066157600080fd5b505af1158015610675573d6000803e3d6000fd5b50505050818061068490610d6b565b9250505061053e565b505050565b6000604051905090565b600080fd5b600080fd5b6000819050919050565b6106b9816106a6565b81146106c457600080fd5b50565b6000813590506106d6816106b0565b92915050565b6000602082840312156106f2576106f161069c565b5b6000610700848285016106c7565b91505092915050565b600073ffffffffffffffffffffffffffffffffffffffff82169050919050565b600061073482610709565b9050919050565b61074481610729565b82525050565b600060408201905061075f600083018561073b565b61076c602083018461073b565b9392505050565b61077c81610729565b811461078757600080fd5b50565b60008135905061079981610773565b92915050565b600080fd5b6000601f19601f8301169050919050565b7f4e487b7100000000000000000000000000000000000000000000000000000000600052604160045260246000fd5b6107ed826107a4565b810181811067ffffffffffffffff8211171561080c5761080b6107b5565b5b80604052505050565b600061081f610692565b905061082b82826107e4565b919050565b600067ffffffffffffffff82111561084b5761084a6107b5565b5b602082029050602081019050919050565b600080fd5b600061087461086f84610830565b610815565b905080838252602082019050602084028301858111156108975761089661085c565b5b835b818110156108c057806108ac88826106c7565b845260208401935050602081019050610899565b5050509392505050565b600082601f8301126108df576108de61079f565b5b81356108ef848260208601610861565b91505092915050565b600067ffffffffffffffff821115610913576109126107b5565b5b602082029050602081019050919050565b600061092f82610729565b9050919050565b61093f81610924565b811461094a57600080fd5b50565b60008135905061095c81610936565b92915050565b6000610975610970846108f8565b610815565b905080838252602082019050602084028301858111156109985761099761085c565b5b835b818110156109c157806109ad888261094d565b84526020840193505060208101905061099a565b5050509392505050565b600082601f8301126109e0576109df61079f565b5b81356109f0848260208601610962565b91505092915050565b60008060008060808587031215610a1357610a1261069c565b5b6000610a218782880161078a565b9450506020610a328782880161078a565b935050604085013567ffffffffffffffff811115610a5357610a526106a1565b5b610a5f878288016108ca565b925050606085013567ffffffffffffffff811115610a8057610a7f6106a1565b5b610a8c878288016109cb565b91505092959194509250565b60008060408385031215610aaf57610aae61069c565b5b6000610abd858286016106c7565b9250506020610ace858286016106c7565b9150509250929050565b60008115159050919050565b610aed81610ad8565b82525050565b610afc816106a6565b82525050565b6000819050919050565b6000610b27610b22610b1d84610709565b610b02565b610709565b9050919050565b6000610b3982610b0c565b9050919050565b6000610b4b82610b2e565b9050919050565b610b5b81610b40565b82525050565b6000606082019050610b766000830186610ae4565b610b836020830185610af3565b610b906040830184610b52565b949350505050565b60008060408385031215610baf57610bae61069c565b5b6000610bbd858286016106c7565b9250506020610bce8582860161078a565b9150509250929050565b600082825260208201905092915050565b7f4f6e6c792061646d696e732063616e2063616c6c20746869732066756e63746960008201527f6f6e2e0000000000000000000000000000000000000000000000000000000000602082015250565b6000610c45602383610bd8565b9150610c5082610be9565b604082019050919050565b60006020820190508181036000830152610c7481610c38565b9050919050565b7f746f6b656e494420616e642061646472657373206c6973747320617265206e6f60008201527f742073616d65206c656e67746800000000000000000000000000000000000000602082015250565b6000610cd7602d83610bd8565b9150610ce282610c7b565b604082019050919050565b60006020820190508181036000830152610d0681610cca565b9050919050565b7f4e487b7100000000000000000000000000000000000000000000000000000000600052603260045260246000fd5b7f4e487b7100000000000000000000000000000000000000000000000000000000600052601160045260246000fd5b6000610d76826106a6565b91507fffffffffffffffffffffffffffffffffffffffffffffffffffffffffffffffff821415610da957610da8610d3c565b5b600182019050919050565b6000606082019050610dc9600083018661073b565b610dd6602083018561073b565b610de36040830184610af3565b94935050505056fea2646970667358221220bd948a6ed34572ccac3fed18d2173a8b0565671a1199486f49d2c81847d4116e64736f6c63430008090033",
  "linkReferences": {},
  "deployedLinkReferences": {}
}